:020000020000FC
:100000005EC02DC00000013049F00A950F930F919A
:100010000F930F91000000000000F5CF08950F939B
:100020000AEF0E9402000F910F930AEF0E94020054
:100030000F910F930AEF0E9402000F910F9309EFA7
:100040000E9402000F910000013041F00A950F93C9
:100050000F910F930F9100000000E1CF0895000071
:100060000102030404050607000103040608090B46
:100070000C0E000306090C101316191C00060C13B5
:100080001920262C3339ECE7F0E0E70F70E0F71F7A
:1000900074910895E2E7F0E0E70F70E0F71F7491C4
:1000A0000895E8E6F0E0E70F70E0F71F7491089517
:1000B000EEE5F0E0E70F70E0F71F7491089501E0BE
:1000C000A8E0003019F4B0E010E04BC07A2F0830FF
:1000D000E0F4043088F4023028F400E882E00E9462
:1000E00043001BC0000F000F000F000F000F000F98
:1000F00083E00E944A0011C0000F000F000F000FA4
:10010000000F84E00E94510008C0000F000F000F94
:10011000000F85E00E94580000C0770F072BB82F12
:10012000102F4F935F936F9317FD04C046E016FFA7
:1001300004C014C01695B39511C050E24A95612FC2
:100140006523603021F45695433041F0F7CF56E0F7
:10015000541B110FBA955A955030D9F76F915F9192
:100160004F911F93BF9301E0A2E0003019F4B0E07B
:1001700010E04BC07A2F0830E0F4043088F40230ED
:1001800028F400E882E00E9443001BC0000F000F2B
:10019000000F000F000F000F83E00E944A0011C003
:1001A000000F000F000F000F000F84E00E945100AD
:1001B00008C0000F000F000F000F85E00E945800DC
:1001C00000C0770F072BB82F102F4F935F936F93BB
:1001D00017FD04C046E016FF04C014C01695B39581
:1001E00011C050E24A95612F6523603021F4569585
:1001F000433041F0F7CF56E0541B110FBA955A9592
:100200005030D9F76F915F914F91AF910F91FF935C
:10021000FA2FF03021F4FF9140E050E06BC0FF91E5
:10022000EF937F93AF9326E073E0A71B2A1B0F93F6
:1002300006952A952030E1F7402F0F910F9322E089
:100240002A0F000F2A952030E1F722E02A0F0695A9
:100250002A952030E1F7502F0F918F939F93EF93C2
:100260009A2F70E0933071F19230F1F0913071F08B
:100270007F930E9443007517A9F1852F871710F40B
:100280007F912EC07F91E72F7395F2CF7F930E94CD
:100290004A00751739F1852F871710F47F9120C018
:1002A0007F91E72F7395F2CF7F930E9451007517CE
:1002B000C9F0852F871710F47F9112C07F91E72F27
:1002C0007395F2CF7F930E945800751759F0852FD0
:1002D000871710F47F9104C07F91E72F7395F2CFB9
:1002E000572F02C07F91572FEF919F918F91AF9120
:1002F0007F91EF91842F952FFF93FB2FF03021F406
:10030000FF9140E050E06BC0FF91EF937F93BF936C
:1003100026E073E0B71B2B1B1F9316952A95203000
:10032000E1F7412F1F911F9322E02B0F110F2A9508
:100330002030E1F722E02B0F16952A952030E1F7C7
:10034000512F1F918F939F93EF939B2F70E09330CA
:1003500071F19230F1F0913071F07F930E9443007F
:100360007517A9F1852F871710F47F912EC07F9103
:10037000E72F7395F2CF7F930E944A00751739F1EA
:10038000852F871710F47F9120C07F91E72F7395F9
:10039000F2CF7F930E9451007517C9F0852F871700
:1003A00010F47F9112C07F91E72F7395F2CF7F9366
:1003B0000E945800751759F0852F871710F47F9108
:1003C00004C07F91E72F7395F2CF572F02C07F9122
:1003D000572FEF919F918F91BF917F91EF91840F54
:1003E000950F9A3008F403C0CAE09C1B8395082F30
:1003F000A92F003019F4B0E010E04BC07A2F08307C
:10040000E0F4043088F4023028F400E882E00E942E
:1004100043001BC0000F000F000F000F000F000F64
:1004200083E00E944A0011C0000F000F000F000F70
:10043000000F84E00E94510008C0000F000F000F61
:10044000000F85E00E94580000C0770F072BB82FDF
:10045000102F4F935F936F9317FD04C046E016FF74
:1004600004C014C01695B39511C050E24A95612F8F
:100470006523603021F45695433041F0F7CF56E0C4
:10048000541B110FBA955A955030D9F76F915F915F
:100490004F91012FAB2F90E00F93AF9304E0A0E0BA
:1004A000003019F4B0E010E04BC07A2F0830E0F4CF
:1004B000043088F4023028F400E882E00E9443000F
:1004C0001BC0000F000F000F000F000F000F83E094
:1004D0000E944A0011C0000F000F000F000F000F14
:1004E00084E00E94510008C0000F000F000F000FB1
:1004F00085E00E94580000C0770F072BB82F102FFF
:100500004F935F936F9317FD04C046E016FF04C03E
:1005100014C01695B39511C050E24A95612F65231A
:10052000603021F45695433041F0F7CF56E0541B2C
:10053000110FBA955A955030D9F76F915F914F913D
:100540001F93BF93AF910F91BF911F91FF93FA2F0C
:10055000F03021F4FF9140E050E06BC0FF91EF9349
:100560007F93AF9326E073E0A71B2A1B0F9306959A
:100570002A952030E1F7402F0F910F9322E02A0FA8
:10058000000F2A952030E1F722E02A0F06952A95E0
:100590002030E1F7502F0F918F939F93EF939A2F75
:1005A00070E0933071F19230F1F0913071F07F93FF
:1005B0000E9443007517A9F1852F871710F47F91CA
:1005C0002EC07F91E72F7395F2CF7F930E944A0050
:1005D000751739F1852F871710F47F9120C07F910F
:1005E000E72F7395F2CF7F930E9451007517C9F0E2
:1005F000852F871710F47F9112C07F91E72F739595
:10060000F2CF7F930E945800751759F0852F8717F6
:1006100010F47F9104C07F91E72F7395F2CF572F8D
:1006200002C07F91572FEF919F918F91AF917F9152
:10063000EF91742F852FFF93FB2FF03021F4FF9162
:1006400040E050E06BC0FF91EF937F93BF9326E0B3
:1006500073E0B71B2B1B1F9316952A952030E1F7EB
:10066000412F1F911F9322E02B0F110F2A9520304D
:10067000E1F722E02B0F16952A952030E1F7512F54
:100680001F918F939F93EF939B2F70E0933071F1A5
:100690009230F1F0913071F07F930E944300751712
:1006A000A9F1852F871710F47F912EC07F91E72F36
:1006B0007395F2CF7F930E944A00751739F1852F09
:1006C000871710F47F9120C07F91E72F7395F2CFA9
:1006D0007F930E9451007517C9F0852F871710F47A
:1006E0007F9112C07F91E72F7395F2CF7F930E9485
:1006F0005800751759F0852F871710F47F9104C0A3
:100700007F91E72F7395F2CF572F02C07F91572F1C
:10071000EF919F918F91BF917F91EF91503009F0B0
:100720001BC0479F702D489F802D8930DFB7D2FDB9
:1007300050C07F938A3018F440E0582F08C0DAE0A8
:10074000F0E08D1BF3958A30E0F74F2F582F7F9103
:10075000740F072FA52F3FC04F93759F902D859F36
:10076000C02DC930DFB7D2FD14C04F935F939F9364
:10077000CA3018F440E05C2F08C0DAE0F0E0CD1B8E
:10078000F395CA30E0F74F2F5C2F9F91940F5F9144
:100790004F91E92FF0E04F91749F902D849FC02DD1
:1007A000C930DFB7D2FD03C09395DAE0CD1BEC0F63
:1007B000EA3018F440E05E2F08C0DAE0F0E0ED1B0C
:1007C000F395EA30E0F74F2F5E2F940F092FA52FF6
:1007D00002C0072FA82F003019F4B0E010E04BC082
:1007E0007A2F0830E0F4043088F4023028F400E86E
:1007F00082E00E9443001BC0000F000F000F000F9B
:10080000000F000F83E00E944A0011C0000F000F8C
:10081000000F000F000F84E00E94510008C0000F7D
:10082000000F000F000F85E00E94580000C0770FF6
:10083000072BB82F102F4F935F936F9317FD04C0B2
:1008400046E016FF04C014C01695B39511C050E2DF
:100850004A95612F6523603021F45695433041F06D
:10086000F7CF56E0541B110FBA955A955030D9F76F
:100870006F915F914F91AB2F012F90E00F93AF934A
:1008800003E0A0E0003019F4B0E010E04BC07A2F94
:100890000830E0F4043088F4023028F400E882E004
:1008A0000E9443001BC0000F000F000F000F000F3D
:1008B000000F83E00E944A0011C0000F000F000FDC
:1008C000000F000F84E00E94510008C0000F000FCD
:1008D000000F000F85E00E94580000C0770F072B23
:1008E000B82F102F4F935F936F9317FD04C046E00E
:1008F00016FF04C014C01695B39511C050E24A9576
:10090000612F6523603021F45695433041F0F7CFD5
:1009100056E0541B110FBA955A955030D9F76F9184
:100920005F914F911F93BF93AF910F91BF911F9113
:10093000FF93FA2FF03021F4FF9140E050E06BC0BC
:10094000FF91EF937F93AF9326E073E0A71B2A1BE1
:100950000F9306952A952030E1F7402F0F910F93C2
:1009600022E02A0F000F2A952030E1F722E02A0F1B
:1009700006952A952030E1F7502F0F918F939F9382
:10098000EF939A2F70E0933071F19230F1F0913043
:1009900071F07F930E9443007517A9F1852F871787
:1009A00010F47F912EC07F91E72F7395F2CF7F9344
:1009B0000E944A00751739F1852F871710F47F912F
:1009C00020C07F91E72F7395F2CF7F930E94510053
:1009D0007517C9F0852F871710F47F9112C07F918A
:1009E000E72F7395F2CF7F930E945800751759F047
:1009F000852F871710F47F9104C07F91E72F73959F
:100A0000F2CF572F02C07F91572FEF919F918F9177
:100A1000AF917F91EF91842F952FFF93FB2FF030B3
:100A200021F4FF9140E050E06BC0FF91EF937F9382
:100A3000BF9326E073E0B71B2B1B1F9316952A95D7
:100A40002030E1F7412F1F911F9322E02B0F110F50
:100A50002A952030E1F722E02B0F16952A952030B9
:100A6000E1F7512F1F918F939F93EF939B2F70E08E
:100A7000933071F19230F1F0913071F07F930E94D8
:100A800043007517A9F1852F871710F47F912EC0A9
:100A90007F91E72F7395F2CF7F930E944A007517DD
:100AA00039F1852F871710F47F9120C07F91E72FB0
:100AB0007395F2CF7F930E9451007517C9F0852F6F
:100AC000871710F47F9112C07F91E72F7395F2CFB3
:100AD0007F930E945800751759F0852F871710F4DF
:100AE0007F9104C07F91E72F7395F2CF572F02C0FB
:100AF0007F91572FEF919F918F91BF917F91EF91B0
:100B0000840F950F9A3008F403C0CAE09C1B8395AC
:100B1000082FA92F003019F4B0E010E04BC07A2F55
:100B20000830E0F4043088F4023028F400E882E071
:100B30000E9443001BC0000F000F000F000F000FAA
:100B4000000F83E00E944A0011C0000F000F000F49
:100B5000000F000F84E00E94510008C0000F000F3A
:100B6000000F000F85E00E94580000C0770F072B90
:100B7000B82F102F4F935F936F9317FD04C046E07B
:100B800016FF04C014C01695B39511C050E24A95E3
:100B9000612F6523603021F45695433041F0F7CF43
:100BA00056E0541B110FBA955A955030D9F76F91F2
:100BB0005F914F91012FAB2F90E0FF93FA2FF03010
:100BC00021F4FF9140E050E06BC0FF91EF937F93E1
:100BD000AF9326E073E0A71B2A1B0F9306952A9577
:100BE0002030E1F7402F0F910F9322E02A0F000FE2
:100BF0002A952030E1F722E02A0F06952A95203029
:100C0000E1F7502F0F918F939F93EF939A2F70E0FE
:100C1000933071F19230F1F0913071F07F930E9436
:100C200043007517A9F1852F871710F47F912EC007
:100C30007F91E72F7395F2CF7F930E944A0075173B
:100C400039F1852F871710F47F9120C07F91E72F0E
:100C50007395F2CF7F930E9451007517C9F0852FCD
:100C6000871710F47F9112C07F91E72F7395F2CF11
:100C70007F930E945800751759F0852F871710F43D
:100C80007F9104C07F91E72F7395F2CF572F02C059
:100C90007F91572FEF919F918F91AF917F91EF911E
:100CA0004A3008F404C03AE0431B61E001C060E050
:100CB0000FEF0AB900E00BB907EE04B908E105B976
:100CC0000FEB07B900E408B900000F930AEF0E9488
:100CD0000F000F91913009F015C02D9A0F930AEF74
:100CE0000E940F000F910F930AEF0E940F000F91C7
:100CF0000F930AEF0E940F000F910F930AEF0E94CB
:100D00000F000F910F93062F0E942D3100910500C7
:100D1000087105B91BB92A9A0F9305E00E940F00CC
:100D20000F910F910F93042F0E942D3110680091A5
:100D30000500087105B91BB9299A0F9305E00E94B7
:100D40000F000F910F910F93052F0E942D310091ED
:100D50000500087105B91BB9289A0F9305E00E9498
:100D60000F000F910F911B9B01C0CCCF0F9305E09B
:100D70000E940F000F9128982D980F930AEF0E9460
:100D80000F000F910F930AEF0E940F000F910F9326
:100D90000AEF0E940F000F910F930AEF0E940F00BD
:100DA0000F9105E0A0E0003019F4B0E010E04BC076
:100DB0007A2F0830E0F4043088F4023028F400E898
:100DC00082E00E9443001BC0000F000F000F000FC5
:100DD000000F000F83E00E944A0011C0000F000FB7
:100DE000000F000F000F84E00E94510008C0000FA8
:100DF000000F000F000F85E00E94580000C0770F21
:100E0000072BB82F102F4F935F936F9317FD04C0DC
:100E100046E016FF04C014C01695B39511C050E209
:100E20004A95612F6523603021F45695433041F097
:100E3000F7CF56E0541B110FBA955A955030D9F799
:100E40006F915F914F911F93BF9302E0A3E0003039
:100E500019F4B0E010E04BC07A2F0830E0F4043011
:100E600088F4023028F400E882E00E9443001BC0AE
:100E7000000F000F000F000F000F000F83E00E9413
:100E80004A0011C0000F000F000F000F000F84E098
:100E90000E94510008C0000F000F000F000F85E0F6
:100EA0000E94580000C0770F072BB82F102F4F93C8
:100EB0005F936F9317FD04C046E016FF04C014C093
:100EC0001695B39511C050E24A95612F65236030A5
:100ED00021F45695433041F0F7CF56E0541B110FE3
:100EE000BA955A955030D9F76F915F914F91AF9164
:100EF0000F91FF93FA2FF03021F4FF9140E050E082
:100F00006BC0FF91EF937F93AF9326E073E0A71B35
:100F10002A1B0F9306952A952030E1F7402F0F9159
:100F20000F9322E02A0F000F2A952030E1F722E0EC
:100F30002A0F06952A952030E1F7502F0F918F93B5
:100F40009F93EF939A2F70E0933071F19230F1F00C
:100F5000913071F07F930E9443007517A9F1852F9E
:100F6000871710F47F912EC07F91E72F7395F2CFF2
:100F70007F930E944A00751739F1852F871710F467
:100F80007F9120C07F91E72F7395F2CF7F930E94CE
:100F900051007517C9F0852F871710F47F9112C083
:100FA0007F91E72F7395F2CF7F930E9458007517BA
:100FB00059F0852F871710F47F9104C07F91E72F98
:100FC0007395F2CF572F02C07F91572FEF919F91CA
:100FD0008F91AF917F91EF91842F952FFF93FB2FEE
:100FE000F03021F4FF9140E050E06BC0FF91EF93AF
:100FF0007F93BF9326E073E0B71B2B1B1F931695BF
:101000002A952030E1F7412F1F911F9322E02B0FEB
:10101000110F2A952030E1F722E02B0F16952A9523
:101020002030E1F7512F1F918F939F93EF939B2FC8
:1010300070E0933071F19230F1F0913071F07F9364
:101040000E9443007517A9F1852F871710F47F912F
:101050002EC07F91E72F7395F2CF7F930E944A00B5
:10106000751739F1852F871710F47F9120C07F9174
:10107000E72F7395F2CF7F930E9451007517C9F047
:10108000852F871710F47F9112C07F91E72F7395FA
:10109000F2CF7F930E945800751759F0852F87175C
:1010A00010F47F9104C07F91E72F7395F2CF572FF3
:1010B00002C07F91572FEF919F918F91BF917F91A8
:1010C000EF91840F950F9A3008F403C0CAE09C1B7F
:1010D0008395082FA92F003019F4B0E010E04BC021
:1010E0007A2F0830E0F4043088F4023028F400E865
:1010F00082E00E9443001BC0000F000F000F000F92
:10110000000F000F83E00E944A0011C0000F000F83
:10111000000F000F000F84E00E94510008C0000F74
:10112000000F000F000F85E00E94580000C0770FED
:10113000072BB82F102F4F935F936F9317FD04C0A9
:1011400046E016FF04C014C01695B39511C050E2D6
:101150004A95612F6523603021F45695433041F064
:10116000F7CF56E0541B110FBA955A955030D9F766
:101170006F915F914F91012FAB2F90E00F93AF9341
:101180000AE0A5E0003019F4B0E010E04BC07A2F7F
:101190000830E0F4043088F4023028F400E882E0FB
:1011A0000E9443001BC0000F000F000F000F000F34
:1011B000000F83E00E944A0011C0000F000F000FD3
:1011C000000F000F84E00E94510008C0000F000FC4
:1011D000000F000F85E00E94580000C0770F072B1A
:1011E000B82F102F4F935F936F9317FD04C046E005
:1011F00016FF04C014C01695B39511C050E24A956D
:10120000612F6523603021F45695433041F0F7CFCC
:1012100056E0541B110FBA955A955030D9F76F917B
:101220005F914F911F93BF93AF910F91BF911F910A
:101230008F939F934F935F93CF931F93BF93FF938E
:10124000FA2FF03021F4FF9140E050E06BC0FF91A5
:10125000EF937F93AF9326E073E0A71B2A1B0F93B6
:1012600006952A952030E1F7402F0F910F9322E049
:101270002A0F000F2A952030E1F722E02A0F069569
:101280002A952030E1F7502F0F918F939F93EF9382
:101290009A2F70E0933071F19230F1F0913071F04B
:1012A0007F930E9443007517A9F1852F871710F4CB
:1012B0007F912EC07F91E72F7395F2CF7F930E948D
:1012C0004A00751739F1852F871710F47F9120C0D8
:1012D0007F91E72F7395F2CF7F930E94510075178E
:1012E000C9F0852F871710F47F9112C07F91E72FE7
:1012F0007395F2CF7F930E945800751759F0852F90
:10130000871710F47F9104C07F91E72F7395F2CF78
:10131000572F02C07F91572FEF919F918F91AF91DF
:101320007F91EF91842F952FFF93FB2FF03021F4C5
:10133000FF9140E050E06BC0FF91EF937F93BF932C
:1013400026E073E0B71B2B1B1F9316952A952030C0
:10135000E1F7412F1F911F9322E02B0F110F2A95C8
:101360002030E1F722E02B0F16952A952030E1F787
:10137000512F1F918F939F93EF939B2F70E093308A
:1013800071F19230F1F0913071F07F930E9443003F
:101390007517A9F1852F871710F47F912EC07F91C3
:1013A000E72F7395F2CF7F930E944A00751739F1AA
:1013B000852F871710F47F9120C07F91E72F7395B9
:1013C000F2CF7F930E9451007517C9F0852F8717C0
:1013D00010F47F9112C07F91E72F7395F2CF7F9326
:1013E0000E945800751759F0852F871710F47F91C8
:1013F00004C07F91E72F7395F2CF572F02C07F91E2
:10140000572FEF919F918F91BF917F91EF91841B07
:10141000DFB7951710F0951B04C0CAE09C0F951B11
:101420008A95082FA92F003019F4B0E010E04BC0C6
:101430007A2F0830E0F4043088F4023028F400E811
:1014400082E00E9443001BC0000F000F000F000F3E
:10145000000F000F83E00E944A0011C0000F000F30
:10146000000F000F000F84E00E94510008C0000F21
:10147000000F000F000F85E00E94580000C0770F9A
:10148000072BB82F102F4F935F936F9317FD04C056
:1014900046E016FF04C014C01695B39511C050E283
:1014A0004A95612F6523603021F45695433041F011
:1014B000F7CF56E0541B110FBA955A955030D9F713
:1014C0006F915F914F91012FAB2FBF911F91CF91E2
:1014D0005F914F919F918F9190E00F93AF9303E0B5
:1014E000A0E0003019F4B0E010E04BC07A2F0830D3
:1014F000E0F4043088F4023028F400E882E00E942E
:1015000043001BC0000F000F000F000F000F000F63
:1015100083E00E944A0011C0000F000F000F000F6F
:10152000000F84E00E94510008C0000F000F000F60
:10153000000F85E00E94580000C0770F072BB82FDE
:10154000102F4F935F936F9317FD04C046E016FF73
:1015500004C014C01695B39511C050E24A95612F8E
:101560006523603021F45695433041F0F7CF56E0C3
:10157000541B110FBA955A955030D9F76F915F915E
:101580004F911F93BF93AF910F91BF911F91FF9305
:10159000FA2FF03021F4FF9140E050E06BC0FF9152
:1015A000EF937F93AF9326E073E0A71B2A1B0F9363
:1015B00006952A952030E1F7402F0F910F9322E0F6
:1015C0002A0F000F2A952030E1F722E02A0F069516
:1015D0002A952030E1F7502F0F918F939F93EF932F
:1015E0009A2F70E0933071F19230F1F0913071F0F8
:1015F0007F930E9443007517A9F1852F871710F478
:101600007F912EC07F91E72F7395F2CF7F930E9439
:101610004A00751739F1852F871710F47F9120C084
:101620007F91E72F7395F2CF7F930E94510075173A
:10163000C9F0852F871710F47F9112C07F91E72F93
:101640007395F2CF7F930E945800751759F0852F3C
:10165000871710F47F9104C07F91E72F7395F2CF25
:10166000572F02C07F91572FEF919F918F91AF918C
:101670007F91EF91742F852FFF93FB2FF03021F492
:10168000FF9140E050E06BC0FF91EF937F93BF93D9
:1016900026E073E0B71B2B1B1F9316952A9520306D
:1016A000E1F7412F1F911F9322E02B0F110F2A9575
:1016B0002030E1F722E02B0F16952A952030E1F734
:1016C000512F1F918F939F93EF939B2F70E0933037
:1016D00071F19230F1F0913071F07F930E944300EC
:1016E0007517A9F1852F871710F47F912EC07F9170
:1016F000E72F7395F2CF7F930E944A00751739F157
:10170000852F871710F47F9120C07F91E72F739565
:10171000F2CF7F930E9451007517C9F0852F87176C
:1017200010F47F9112C07F91E72F7395F2CF7F93D2
:101730000E945800751759F0852F871710F47F9174
:1017400004C07F91E72F7395F2CF572F02C07F918E
:10175000572FEF919F918F91BF917F91EF915030D3
:1017600009F01BC0479F702D489F802D8930DFB73F
:10177000D2FD50C07F938A3018F440E0582F08C043
:10178000DAE0F0E08D1BF3958A30E0F74F2F582F09
:101790007F91740F072FA52F3FC04F93759F902DFA
:1017A000859FC02DC930DFB7D2FD14C04F935F9322
:1017B0009F93CA3018F440E05C2F08C0DAE0F0E0F4
:1017C000CD1BF395CA30E0F74F2F5C2F9F91940FFC
:1017D0005F914F91E92FF0E04F91749F902D849F7E
:1017E000C02DC930DFB7D2FD03C09395DAE0CD1B21
:1017F000EC0FEA3018F440E05E2F08C0DAE0F0E0C9
:10180000ED1BF395EA30E0F74F2F5E2F940F092F71
:10181000A52F02C0072FA82F003019F4B0E010E068
:101820004BC07A2F0830E0F4043088F4023028F4FA
:1018300000E882E00E9443001BC0000F000F000F71
:10184000000F000F000F83E00E944A0011C0000F3C
:10185000000F000F000F000F84E00E94510008C02D
:10186000000F000F000F000F85E00E94580000C01D
:10187000770F072BB82F102F4F935F936F9317FDA0
:1018800004C046E016FF04C014C01695B39511C0FD
:1018900050E24A95612F6523603021F4569543301C
:1018A00041F0F7CF56E0541B110FBA955A955030BE
:1018B000D9F76F915F914F91AB2F012F90E00F936C
:1018C000AF930CE0A4E0003019F4B0E010E04BC09E
:1018D0007A2F0830E0F4043088F4023028F400E86D
:1018E00082E00E9443001BC0000F000F000F000F9A
:1018F000000F000F83E00E944A0011C0000F000F8C
:10190000000F000F000F84E00E94510008C0000F7C
:10191000000F000F000F85E00E94580000C0770FF5
:10192000072BB82F102F4F935F936F9317FD04C0B1
:1019300046E016FF04C014C01695B39511C050E2DE
:101940004A95612F6523603021F45695433041F06C
:10195000F7CF56E0541B110FBA955A955030D9F76E
:101960006F915F914F911F93BF93AF910F91BF9173
:101970001F910F931F93AF93BF9330E08F939F936B
:101980004F935F93CF931F93BF93FF93FA2FF03042
:1019900021F4FF9140E050E06BC0FF91EF937F9303
:1019A000AF9326E073E0A71B2A1B0F9306952A9599
:1019B0002030E1F7402F0F910F9322E02A0F000F04
:1019C0002A952030E1F722E02A0F06952A9520304B
:1019D000E1F7502F0F918F939F93EF939A2F70E021
:1019E000933071F19230F1F0913071F07F930E9459
:1019F00043007517A9F1852F871710F47F912EC02A
:101A00007F91E72F7395F2CF7F930E944A0075175D
:101A100039F1852F871710F47F9120C07F91E72F30
:101A20007395F2CF7F930E9451007517C9F0852FEF
:101A3000871710F47F9112C07F91E72F7395F2CF33
:101A40007F930E945800751759F0852F871710F45F
:101A50007F9104C07F91E72F7395F2CF572F02C07B
:101A60007F91572FEF919F918F91AF917F91EF9140
:101A7000842F952FFF93FB2FF03021F4FF9140E04E
:101A800050E06BC0FF91EF937F93BF9326E073E02C
:101A9000B71B2B1B1F9316952A952030E1F7412F7A
:101AA0001F911F9322E02B0F110F2A952030E1F791
:101AB00022E02B0F16952A952030E1F7512F1F9128
:101AC0008F939F93EF939B2F70E0933071F192303F
:101AD000F1F0913071F07F930E9443007517A9F1E6
:101AE000852F871710F47F912EC07F91E72F739574
:101AF000F2CF7F930E944A00751739F1852F87171F
:101B000010F47F9120C07F91E72F7395F2CF7F93E0
:101B10000E9451007517C9F0852F871710F47F9127
:101B200012C07F91E72F7395F2CF7F930E945800E8
:101B3000751759F0852F871710F47F9104C07F9196
:101B4000E72F7395F2CF572F02C07F91572FEF9158
:101B50009F918F91BF917F91EF91841BDFB7951774
:101B600010F0951B04C0CAE09C0F951B8A95082FA6
:101B7000A92F003019F4B0E010E04BC07A2F0830E4
:101B8000E0F4043088F4023028F400E882E00E9497
:101B900043001BC0000F000F000F000F000F000FCD
:101BA00083E00E944A0011C0000F000F000F000FD9
:101BB000000F84E00E94510008C0000F000F000FCA
:101BC000000F85E00E94580000C0770F072BB82F48
:101BD000102F4F935F936F9317FD04C046E016FFDD
:101BE00004C014C01695B39511C050E24A95612FF8
:101BF0006523603021F45695433041F0F7CF56E02D
:101C0000541B110FBA955A955030D9F76F915F91C7
:101C10004F91012FAB2FBF911F91CF915F914F91AA
:101C20009F918F914F935F936F9317FD04C046E090
:101C300016FF04C014C01695B39511C050E24A9522
:101C4000612F6523603021F45695433041F0F7CF82
:101C500056E0541B110FBA955A955030D9F76F9131
:101C60005F914F91D2FD04C03395002E1A2E86CE7F
:101C7000BF91AF911F910F910F931F933F93E0E09E
:101C8000EF93FF93F12DF03021F4FF9140E050E00D
:101C90006BC0FF91EF937F931F9226E073E0171ABA
:101CA00021190F9206942A952030E1F7402D0F90CC
:101CB0000F9222E0210D000C2A952030E1F722E05E
:101CC000210D06942A952030E1F7502D0F908F9327
:101CD0009F93EF93912D70E0933071F19230F1F07A
:101CE000913071F07F930E9443007517A9F1852F01
:101CF000871710F47F912EC07F91E72F7395F2CF55
:101D00007F930E944A00751739F1852F871710F4C9
:101D10007F9120C07F91E72F7395F2CF7F930E9430
:101D200051007517C9F0852F871710F47F9112C0E5
:101D30007F91E72F7395F2CF7F930E94580075171C
:101D400059F0852F871710F47F9104C07F91E72FFA
:101D50007395F2CF572F02C07F91572FEF919F912C
:101D60008F911F907F91EF91403009F002C0C42FF6
:101D70008EC1EF91E42FEF934F935F93FF93FA2F70
:101D8000F03021F4FF9140E050E06BC0FF91EF9301
:101D90007F93AF9326E073E0A71B2A1B0F93069552
:101DA0002A952030E1F7402F0F910F9322E02A0F60
:101DB000000F2A952030E1F722E02A0F06952A9598
:101DC0002030E1F7502F0F918F939F93EF939A2F2D
:101DD00070E0933071F19230F1F0913071F07F93B7
:101DE0000E9443007517A9F1852F871710F47F9182
:101DF0002EC07F91E72F7395F2CF7F930E944A0008
:101E0000751739F1852F871710F47F9120C07F91C6
:101E1000E72F7395F2CF7F930E9451007517C9F099
:101E2000852F871710F47F9112C07F91E72F73954C
:101E3000F2CF7F930E945800751759F0852F8717AE
:101E400010F47F9104C07F91E72F7395F2CF572F45
:101E500002C07F91572FEF919F918F91AF917F910A
:101E6000EF915030DFB75F914F91D1FF7CC04F931E
:101E70005F93FF93FB2FF03021F4FF9140E050E09F
:101E80006BC0FF91EF937F93BF9326E073E0B71B86
:101E90002B1B1F9316952A952030E1F7412F1F9198
:101EA0001F9322E02B0F110F2A952030E1F722E03B
:101EB0002B0F16952A952030E1F7512F1F918F9304
:101EC0009F93EF939B2F70E0933071F19230F1F07C
:101ED000913071F07F930E9443007517A9F1852F0F
:101EE000871710F47F912EC07F91E72F7395F2CF63
:101EF0007F930E944A00751739F1852F871710F4D8
:101F00007F9120C07F91E72F7395F2CF7F930E943E
:101F100051007517C9F0852F871710F47F9112C0F3
:101F20007F91E72F7395F2CF7F930E94580075172A
:101F300059F0852F871710F47F9104C07F91E72F08
:101F40007395F2CF572F02C07F91572FEF919F913A
:101F50008F91BF917F91EF915030DFB75F914F919B
:101F6000D1FF01C094C0EF91E0E0EF933AE0439FCE
:101F7000302D350FFF93FB2FF03021F4FF9140E01F
:101F800050E06BC0FF91EF937F93BF9326E073E027
:101F9000B71B2B1B1F9316952A952030E1F7412F75
:101FA0001F911F9322E02B0F110F2A952030E1F78C
:101FB00022E02B0F16952A952030E1F7512F1F9123
:101FC0008F939F93EF939B2F70E0933071F192303A
:101FD000F1F0913071F07F930E9443007517A9F1E1
:101FE000852F871710F47F912EC07F91E72F73956F
:101FF000F2CF7F930E944A00751739F1852F87171A
:1020000010F47F9120C07F91E72F7395F2CF7F93DB
:102010000E9451007517C9F0852F871710F47F9122
:1020200012C07F91E72F7395F2CF7F930E945800E3
:10203000751759F0852F871710F47F9104C07F9191
:10204000E72F7395F2CF572F02C07F91572FEF9153
:102050009F918F91BF917F91EF91F0E0341BDFB79B
:10206000D2FD06C0F93019F0F395732FF7CF0EC0EB
:10207000741760F0523050F03AE0739F702DC0E05A
:10208000751BDFB7D2FD03C0C395FACFCF2FEF91F9
:102090003F911F910F91EF93303019F4B0E010E0B1
:1020A0004BC07C2F3830E0F4343088F4323028F4E0
:1020B00030E882E00E9443001BC0330F330F330F20
:1020C000330F330F330F83E00E944A0011C0330FE8
:1020D000330F330F330F330F84E00E94510008C0D9
:1020E000330F330F330F330F85E00E94580000C0C9
:1020F000770F372BB82F132F4F935F936F9317FDE5
:1021000004C046E016FF04C014C01695B39511C074
:1021100050E24A95612F6523603021F45695433093
:1021200041F0F7CF56E0541B110FBA955A95503035
:10213000D9F76F915F914F91EF91012FAB2F90E005
:10214000FF93FA2FF03021F4FF9140E050E06BC094
:10215000FF91EF937F93AF9326E073E0A71B2A1BB9
:102160000F9306952A952030E1F7402F0F910F939A
:1021700022E02A0F000F2A952030E1F722E02A0FF3
:1021800006952A952030E1F7502F0F918F939F935A
:10219000EF939A2F70E0933071F19230F1F091301B
:1021A00071F07F930E9443007517A9F1852F87175F
:1021B00010F47F912EC07F91E72F7395F2CF7F931C
:1021C0000E944A00751739F1852F871710F47F9107
:1021D00020C07F91E72F7395F2CF7F930E9451002B
:1021E0007517C9F0852F871710F47F9112C07F9162
:1021F000E72F7395F2CF7F930E945800751759F01F
:10220000852F871710F47F9104C07F91E72F739576
:10221000F2CF572F02C07F91572FEF919F918F914F
:10222000AF917F91EF914A3008F404C03AE0431B2C
:1022300061E001C060E00FEF0AB900E00BB907EE02
:1022400004B908E105B90FEB07B900E408B90000CB
:102250000F930AEF0E940F000F91913009F015C003
:102260002D9A0F930AEF0E940F000F910F930AEF20
:102270000E940F000F910F930AEF0E940F000F9121
:102280000F930AEF0E940F000F910F93062F0E94E9
:102290002D3100910500087105B91BB92A9A0F93D9
:1022A00005E00E940F000F910F910F93042F0E94E1
:1022B0002D31106800910500087105B91BB9299AE4
:1022C0000F9305E00E940F000F910F910F93052FC0
:1022D0000E942D3100910500087105B91BB9289A9B
:1022E0000F9305E00E940F000F910F911B9B01C0FF
:1022F000CCCF0F9305E00E940F000F9128982D98E6
:102300000F930AEF0E940F000F910F930AEF0E94A4
:102310000F000F910F930AEF0E940F000F910F9380
:102320000AEF0E940F000F9105E0A0E0003019F4C1
:10233000B0E010E04BC07A2F0830E0F4043088F4AD
:10234000023028F400E882E00E9443001BC0000F26
:10235000000F000F000F000F000F83E00E944A00E3
:1023600011C0000F000F000F000F000F84E00E944B
:10237000510008C0000F000F000F000F85E00E9401
:10238000580000C0770F072BB82F102F4F935F9383
:102390006F9317FD04C046E016FF04C014C01695E5
:1023A000B39511C050E24A95612F6523603021F446
:1023B0005695433041F0F7CF56E0541B110FBA95B4
:1023C0005A955030D9F76F915F914F911F93BF93FA
:1023D00002E0A0E0003019F4B0E010E04BC07A2F2A
:1023E0000830E0F4043088F4023028F400E882E099
:1023F0000E9443001BC0000F000F000F000F000FD2
:10240000000F83E00E944A0011C0000F000F000F70
:10241000000F000F84E00E94510008C0000F000F61
:10242000000F000F85E00E94580000C0770F072BB7
:10243000B82F102F4F935F936F9317FD04C046E0A2
:1024400016FF04C014C01695B39511C050E24A950A
:10245000612F6523603021F45695433041F0F7CF6A
:1024600056E0541B110FBA955A955030D9F76F9119
:102470005F914F91AF910F91FF93FA2FF03021F4BC
:10248000FF9140E050E06BC0FF91EF937F93AF93DB
:1024900026E073E0A71B2A1B0F9306952A95203090
:1024A000E1F7402F0F910F9322E02A0F000F2A959A
:1024B0002030E1F722E02A0F06952A952030E1F737
:1024C000502F0F918F939F93EF939A2F70E093303B
:1024D00071F19230F1F0913071F07F930E944300DE
:1024E0007517A9F1852F871710F47F912EC07F9162
:1024F000E72F7395F2CF7F930E944A00751739F149
:10250000852F871710F47F9120C07F91E72F739557
:10251000F2CF7F930E9451007517C9F0852F87175E
:1025200010F47F9112C07F91E72F7395F2CF7F93C4
:102530000E945800751759F0852F871710F47F9166
:1025400004C07F91E72F7395F2CF572F02C07F9180
:10255000572FEF919F918F91AF917F91EF91842FA2
:10256000952FFF93FB2FF03021F4FF9140E050E0D6
:102570006BC0FF91EF937F93BF9326E073E0B71B8F
:102580002B1B1F9316952A952030E1F7412F1F91A1
:102590001F9322E02B0F110F2A952030E1F722E044
:1025A0002B0F16952A952030E1F7512F1F918F930D
:1025B0009F93EF939B2F70E0933071F19230F1F085
:1025C000913071F07F930E9443007517A9F1852F18
:1025D000871710F47F912EC07F91E72F7395F2CF6C
:1025E0007F930E944A00751739F1852F871710F4E1
:1025F0007F9120C07F91E72F7395F2CF7F930E9448
:1026000051007517C9F0852F871710F47F9112C0FC
:102610007F91E72F7395F2CF7F930E945800751733
:1026200059F0852F871710F47F9104C07F91E72F11
:102630007395F2CF572F02C07F91572FEF919F9143
:102640008F91BF917F91EF91840F950F9A3008F48D
:1026500003C0CAE09C1B8395082FA92F003019F4F2
:10266000B0E010E04BC07A2F0830E0F4043088F47A
:10267000023028F400E882E00E9443001BC0000FF3
:10268000000F000F000F000F000F83E00E944A00B0
:1026900011C0000F000F000F000F000F84E00E9418
:1026A000510008C0000F000F000F000F85E00E94CE
:1026B000580000C0770F072BB82F102F4F935F9350
:1026C0006F9317FD04C046E016FF04C014C01695B2
:1026D000B39511C050E24A95612F6523603021F413
:1026E0005695433041F0F7CF56E0541B110FBA9581
:1026F0005A955030D9F76F915F914F91012FAB2FC1
:1027000090E00F93AF930AE0A0E0003019F4B0E03E
:1027100010E04BC07A2F0830E0F4043088F4023027
:1027200028F400E882E00E9443001BC0000F000F65
:10273000000F000F000F000F83E00E944A0011C03D
:10274000000F000F000F000F000F84E00E945100E7
:1027500008C0000F000F000F000F85E00E94580016
:1027600000C0770F072BB82F102F4F935F936F93F5
:1027700017FD04C046E016FF04C014C01695B395BB
:1027800011C050E24A95612F6523603021F45695BF
:10279000433041F0F7CF56E0541B110FBA955A95CC
:1027A0005030D9F76F915F914F911F93BF93AF91C5
:1027B0000F91BF911F918F939F934F935F93CF93EF
:1027C0001F93BF93FF93FA2FF03021F4FF9140E065
:1027D00050E06BC0FF91EF937F93AF9326E073E0DF
:1027E000A71B2A1B0F9306952A952030E1F7402F4F
:1027F0000F910F9322E02A0F000F2A952030E1F766
:1028000022E02A0F06952A952030E1F7502F0F91EC
:102810008F939F93EF939A2F70E0933071F19230E2
:10282000F1F0913071F07F930E9443007517A9F188
:10283000852F871710F47F912EC07F91E72F739516
:10284000F2CF7F930E944A00751739F1852F8717C1
:1028500010F47F9120C07F91E72F7395F2CF7F9383
:102860000E9451007517C9F0852F871710F47F91CA
:1028700012C07F91E72F7395F2CF7F930E9458008B
:10288000751759F0852F871710F47F9104C07F9139
:10289000E72F7395F2CF572F02C07F91572FEF91FB
:1028A0009F918F91AF917F91EF91842F952FFF93FF
:1028B000FB2FF03021F4FF9140E050E06BC0FF911E
:1028C000EF937F93BF9326E073E0B71B2B1B1F93FF
:1028D00016952A952030E1F7412F1F911F9322E092
:1028E0002B0F110F2A952030E1F722E02B0F1695C0
:1028F0002A952030E1F7512F1F918F939F93EF93EB
:102900009B2F70E0933071F19230F1F0913071F0C3
:102910007F930E9443007517A9F1852F871710F444
:102920007F912EC07F91E72F7395F2CF7F930E9406
:102930004A00751739F1852F871710F47F9120C051
:102940007F91E72F7395F2CF7F930E945100751707
:10295000C9F0852F871710F47F9112C07F91E72F60
:102960007395F2CF7F930E945800751759F0852F09
:10297000871710F47F9104C07F91E72F7395F2CFF2
:10298000572F02C07F91572FEF919F918F91BF9149
:102990007F91EF91841BDFB7951710F0951B04C052
:1029A000CAE09C0F951B8A95082FA92F003019F4B7
:1029B000B0E010E04BC07A2F0830E0F4043088F427
:1029C000023028F400E882E00E9443001BC0000FA0
:1029D000000F000F000F000F000F83E00E944A005D
:1029E00011C0000F000F000F000F000F84E00E94C5
:1029F000510008C0000F000F000F000F85E00E947B
:102A0000580000C0770F072BB82F102F4F935F93FC
:102A10006F9317FD04C046E016FF04C014C016955E
:102A2000B39511C050E24A95612F6523603021F4BF
:102A30005695433041F0F7CF56E0541B110FBA952D
:102A40005A955030D9F76F915F914F91012FAB2F6D
:102A5000BF911F91CF915F914F919F918F9190E086
:102A60000F93AF9303E0A0E0003019F4B0E010E062
:102A70004BC07A2F0830E0F4043088F4023028F498
:102A800000E882E00E9443001BC0000F000F000F0F
:102A9000000F000F000F83E00E944A0011C0000FDA
:102AA000000F000F000F000F84E00E94510008C0CB
:102AB000000F000F000F000F85E00E94580000C0BB
:102AC000770F072BB82F102F4F935F936F9317FD3E
:102AD00004C046E016FF04C014C01695B39511C09B
:102AE00050E24A95612F6523603021F456954330BA
:102AF00041F0F7CF56E0541B110FBA955A9550305C
:102B0000D9F76F915F914F911F93BF93AF910F9141
:102B1000BF911F91FF93FA2FF03021F4FF9140E015
:102B200050E06BC0FF91EF937F93AF9326E073E08B
:102B3000A71B2A1B0F9306952A952030E1F7402FFB
:102B40000F910F9322E02A0F000F2A952030E1F712
:102B500022E02A0F06952A952030E1F7502F0F9199
:102B60008F939F93EF939A2F70E0933071F192308F
:102B7000F1F0913071F07F930E9443007517A9F135
:102B8000852F871710F47F912EC07F91E72F7395C3
:102B9000F2CF7F930E944A00751739F1852F87176E
:102BA00010F47F9120C07F91E72F7395F2CF7F9330
:102BB0000E9451007517C9F0852F871710F47F9177
:102BC00012C07F91E72F7395F2CF7F930E94580038
:102BD000751759F0852F871710F47F9104C07F91E6
:102BE000E72F7395F2CF572F02C07F91572FEF91A8
:102BF0009F918F91AF917F91EF91742F852FFF93CC
:102C0000FB2FF03021F4FF9140E050E06BC0FF91CA
:102C1000EF937F93BF9326E073E0B71B2B1B1F93AB
:102C200016952A952030E1F7412F1F911F9322E03E
:102C30002B0F110F2A952030E1F722E02B0F16956C
:102C40002A952030E1F7512F1F918F939F93EF9397
:102C50009B2F70E0933071F19230F1F0913071F070
:102C60007F930E9443007517A9F1852F871710F4F1
:102C70007F912EC07F91E72F7395F2CF7F930E94B3
:102C80004A00751739F1852F871710F47F9120C0FE
:102C90007F91E72F7395F2CF7F930E9451007517B4
:102CA000C9F0852F871710F47F9112C07F91E72F0D
:102CB0007395F2CF7F930E945800751759F0852FB6
:102CC000871710F47F9104C07F91E72F7395F2CF9F
:102CD000572F02C07F91572FEF919F918F91BF91F6
:102CE0007F91EF91503009F01BC0479F702D489F96
:102CF000802D8930DFB7D2FD50C07F938A3018F421
:102D000040E0582F08C0DAE0F0E08D1BF3958A30E0
:102D1000E0F74F2F582F7F91740F072FA52F3FC03B
:102D20004F93759F902D859FC02DC930DFB7D2FD81
:102D300014C04F935F939F93CA3018F440E05C2F08
:102D400008C0DAE0F0E0CD1BF395CA30E0F74F2F72
:102D50005C2F9F91940F5F914F91E92FF0E04F917D
:102D6000749F902D849FC02DC930DFB7D2FD03C062
:102D70009395DAE0CD1BEC0FEA3018F440E05E2FBB
:102D800008C0DAE0F0E0ED1BF395EA30E0F74F2FF2
:102D90005E2F940F092FA52F02C0072FA82F0030F8
:102DA00019F4B0E010E04BC07A2F0830E0F40430A2
:102DB00088F4023028F400E882E00E9443001BC03F
:102DC000000F000F000F000F000F000F83E00E94A4
:102DD0004A0011C0000F000F000F000F000F84E029
:102DE0000E94510008C0000F000F000F000F85E087
:102DF0000E94580000C0770F072BB82F102F4F9359
:102E00005F936F9317FD04C046E016FF04C014C023
:102E10001695B39511C050E24A95612F6523603035
:102E200021F45695433041F0F7CF56E0541B110F73
:102E3000BA955A955030D9F76F915F914F91AB2F5A
:102E4000012F90E00F93AF930CE0A0E0003019F455
:102E5000B0E010E04BC07A2F0830E0F4043088F482
:102E6000023028F400E882E00E9443001BC0000FFB
:102E7000000F000F000F000F000F83E00E944A00B8
:102E800011C0000F000F000F000F000F84E00E9420
:102E9000510008C0000F000F000F000F85E00E94D6
:102EA000580000C0770F072BB82F102F4F935F9358
:102EB0006F9317FD04C046E016FF04C014C01695BA
:102EC000B39511C050E24A95612F6523603021F41B
:102ED0005695433041F0F7CF56E0541B110FBA9589
:102EE0005A955030D9F76F915F914F911F93BF93CF
:102EF000AF910F91BF911F910F931F93AF93BF930A
:102F000030E08F939F934F935F93CF931F93BF9323
:102F1000FF93FA2FF03021F4FF9140E050E06BC0B6
:102F2000FF91EF937F93AF9326E073E0A71B2A1BDB
:102F30000F9306952A952030E1F7402F0F910F93BC
:102F400022E02A0F000F2A952030E1F722E02A0F15
:102F500006952A952030E1F7502F0F918F939F937C
:102F6000EF939A2F70E0933071F19230F1F091303D
:102F700071F07F930E9443007517A9F1852F871781
:102F800010F47F912EC07F91E72F7395F2CF7F933E
:102F90000E944A00751739F1852F871710F47F9129
:102FA00020C07F91E72F7395F2CF7F930E9451004D
:102FB0007517C9F0852F871710F47F9112C07F9184
:102FC000E72F7395F2CF7F930E945800751759F041
:102FD000852F871710F47F9104C07F91E72F739599
:102FE000F2CF572F02C07F91572FEF919F918F9172
:102FF000AF917F91EF91842F952FFF93FB2FF030AE
:1030000021F4FF9140E050E06BC0FF91EF937F937C
:10301000BF9326E073E0B71B2B1B1F9316952A95D1
:103020002030E1F7412F1F911F9322E02B0F110F4A
:103030002A952030E1F722E02B0F16952A952030B3
:10304000E1F7512F1F918F939F93EF939B2F70E088
:10305000933071F19230F1F0913071F07F930E94D2
:1030600043007517A9F1852F871710F47F912EC0A3
:103070007F91E72F7395F2CF7F930E944A007517D7
:1030800039F1852F871710F47F9120C07F91E72FAA
:103090007395F2CF7F930E9451007517C9F0852F69
:1030A000871710F47F9112C07F91E72F7395F2CFAD
:1030B0007F930E945800751759F0852F871710F4D9
:1030C0007F9104C07F91E72F7395F2CF572F02C0F5
:1030D0007F91572FEF919F918F91BF917F91EF91AA
:1030E000841BDFB7951710F0951B04C0CAE09C0F36
:1030F000951B8A95082FA92F003019F4B0E010E035
:103100004BC07A2F0830E0F4043088F4023028F401
:1031100000E882E00E9443001BC0000F000F000F78
:10312000000F000F000F83E00E944A0011C0000F43
:10313000000F000F000F000F84E00E94510008C034
:10314000000F000F000F000F85E00E94580000C024
:10315000770F072BB82F102F4F935F936F9317FDA7
:1031600004C046E016FF04C014C01695B39511C004
:1031700050E24A95612F6523603021F45695433023
:1031800041F0F7CF56E0541B110FBA955A955030C5
:10319000D9F76F915F914F91012FAB2FBF911F9185
:1031A000CF915F914F919F918F914F935F936F93C9
:1031B00017FD04C046E016FF04C014C01695B39571
:1031C00011C050E24A95612F6523603021F4569575
:1031D000433041F0F7CF56E0541B110FBA955A9582
:1031E0005030D9F76F915F914F91D2FD04C0339564
:1031F000002E1A2E86CEBF91AF911F910F910F9383
:103200001F933F93E0E0EF93FF93F12DF03021F413
:10321000FF9140E050E06BC0FF91EF937F931F92CE
:1032200026E073E0171A21190F9206942A95203090
:10323000E1F7402D0F900F9222E0210D000C2A950E
:103240002030E1F722E0210D06942A952030E1F7A5
:10325000502D0F908F939F93EF93912D70E09330AB
:1032600071F19230F1F0913071F07F930E94430040
:103270007517A9F1852F871710F47F912EC07F91C4
:10328000E72F7395F2CF7F930E944A00751739F1AB
:10329000852F871710F47F9120C07F91E72F7395BA
:1032A000F2CF7F930E9451007517C9F0852F8717C1
:1032B00010F47F9112C07F91E72F7395F2CF7F9327
:1032C0000E945800751759F0852F871710F47F91C9
:1032D00004C07F91E72F7395F2CF572F02C07F91E3
:1032E000572FEF919F918F911F907F91EF914030D9
:1032F00009F002C0C42F8EC1EF91E42FEF934F93DA
:103300005F93FF93FA2FF03021F4FF9140E050E0FB
:103310006BC0FF91EF937F93AF9326E073E0A71B01
:103320002A1B0F9306952A952030E1F7402F0F9125
:103330000F9322E02A0F000F2A952030E1F722E0B8
:103340002A0F06952A952030E1F7502F0F918F9381
:103350009F93EF939A2F70E0933071F19230F1F0D8
:10336000913071F07F930E9443007517A9F1852F6A
:10337000871710F47F912EC07F91E72F7395F2CFBE
:103380007F930E944A00751739F1852F871710F433
:103390007F9120C07F91E72F7395F2CF7F930E949A
:1033A00051007517C9F0852F871710F47F9112C04F
:1033B0007F91E72F7395F2CF7F930E945800751786
:1033C00059F0852F871710F47F9104C07F91E72F64
:1033D0007395F2CF572F02C07F91572FEF919F9196
:1033E0008F91AF917F91EF915030DFB75F914F9107
:1033F000D1FF7CC04F935F93FF93FB2FF03021F4FC
:10340000FF9140E050E06BC0FF91EF937F93BF933B
:1034100026E073E0B71B2B1B1F9316952A952030CF
:10342000E1F7412F1F911F9322E02B0F110F2A95D7
:103430002030E1F722E02B0F16952A952030E1F796
:10344000512F1F918F939F93EF939B2F70E0933099
:1034500071F19230F1F0913071F07F930E9443004E
:103460007517A9F1852F871710F47F912EC07F91D2
:10347000E72F7395F2CF7F930E944A00751739F1B9
:10348000852F871710F47F9120C07F91E72F7395C8
:10349000F2CF7F930E9451007517C9F0852F8717CF
:1034A00010F47F9112C07F91E72F7395F2CF7F9335
:1034B0000E945800751759F0852F871710F47F91D7
:1034C00004C07F91E72F7395F2CF572F02C07F91F1
:1034D000572FEF919F918F91BF917F91EF91503036
:1034E000DFB75F914F91D1FF01C094C0EF91E0E051
:1034F000EF933AE0439F302D350FFF93FB2FF030D1
:1035000021F4FF9140E050E06BC0FF91EF937F9377
:10351000BF9326E073E0B71B2B1B1F9316952A95CC
:103520002030E1F7412F1F911F9322E02B0F110F45
:103530002A952030E1F722E02B0F16952A952030AE
:10354000E1F7512F1F918F939F93EF939B2F70E083
:10355000933071F19230F1F0913071F07F930E94CD
:1035600043007517A9F1852F871710F47F912EC09E
:103570007F91E72F7395F2CF7F930E944A007517D2
:1035800039F1852F871710F47F9120C07F91E72FA5
:103590007395F2CF7F930E9451007517C9F0852F64
:1035A000871710F47F9112C07F91E72F7395F2CFA8
:1035B0007F930E945800751759F0852F871710F4D4
:1035C0007F9104C07F91E72F7395F2CF572F02C0F0
:1035D0007F91572FEF919F918F91BF917F91EF91A5
:1035E000F0E0341BDFB7D2FD06C0F93019F0F395D7
:1035F000732FF7CF0EC0741760F0523050F03AE0DE
:10360000739F702DC0E0751BDFB7D2FD03C0C3955B
:10361000FACFCF2FEF913F911F910F91EF93303061
:1036200019F4B0E010E04BC07C2F3830E0F43430B7
:1036300088F4323028F430E882E00E9443001BC056
:10364000330F330F330F330F330F330F83E00E94E9
:103650004A0011C0330F330F330F330F330F84E0A1
:103660000E94510008C0330F330F330F330F85E032
:103670000E94580000C0770F372BB82F132F4F939D
:103680005F936F9317FD04C046E016FF04C014C09B
:103690001695B39511C050E24A95612F65236030AD
:1036A00021F45695433041F0F7CF56E0541B110FEB
:1036B000BA955A955030D9F76F915F914F91EF912C
:1036C000012FAB2F1E2FB0E0103019F4B0E010E046
:1036D0004BC07B2F1830E0F4143088F4123028F4FB
:1036E00010E882E00E9443001BC0110F110F110F60
:1036F000110F110F110F83E00E944A0011C0110F2A
:10370000110F110F110F110F84E00E94510008C01A
:10371000110F110F110F110F85E00E94580000C00A
:10372000770F172BB82F112F4F935F936F9317FDC0
:1037300004C046E016FF04C014C01695B39511C02E
:1037400050E24A95612F6523603021F4569543304D
:1037500041F0F7CF56E0541B110FBA955A955030EF
:10376000D9F76F915F914F91AB2F012F90E00F939D
:10377000AF9305E0A0E0003019F4B0E010E04BC0DA
:103780007A2F0830E0F4043088F4023028F400E89E
:1037900082E00E9443001BC0000F000F000F000FCB
:1037A000000F000F83E00E944A0011C0000F000FBD
:1037B000000F000F000F84E00E94510008C0000FAE
:1037C000000F000F000F85E00E94580000C0770F27
:1037D000072BB82F102F4F935F936F9317FD04C0E3
:1037E00046E016FF04C014C01695B39511C050E210
:1037F0004A95612F6523603021F45695433041F09E
:10380000F7CF56E0541B110FBA955A955030D9F79F
:103810006F915F914F911F93BF93AF910F91BF91A4
:103820001F918F939F934F935F93CF931F93BF935A
:10383000FF93FA2FF03021F4FF9140E050E06BC08D
:10384000FF91EF937F93AF9326E073E0A71B2A1BB2
:103850000F9306952A952030E1F7402F0F910F9393
:1038600022E02A0F000F2A952030E1F722E02A0FEC
:1038700006952A952030E1F7502F0F918F939F9353
:10388000EF939A2F70E0933071F19230F1F0913014
:1038900071F07F930E9443007517A9F1852F871758
:1038A00010F47F912EC07F91E72F7395F2CF7F9315
:1038B0000E944A00751739F1852F871710F47F9100
:1038C00020C07F91E72F7395F2CF7F930E94510024
:1038D0007517C9F0852F871710F47F9112C07F915B
:1038E000E72F7395F2CF7F930E945800751759F018
:1038F000852F871710F47F9104C07F91E72F739570
:10390000F2CF572F02C07F91572FEF919F918F9148
:10391000AF917F91EF91842F952FFF93FB2FF03084
:1039200021F4FF9140E050E06BC0FF91EF937F9353
:10393000BF9326E073E0B71B2B1B1F9316952A95A8
:103940002030E1F7412F1F911F9322E02B0F110F21
:103950002A952030E1F722E02B0F16952A9520308A
:10396000E1F7512F1F918F939F93EF939B2F70E05F
:10397000933071F19230F1F0913071F07F930E94A9
:1039800043007517A9F1852F871710F47F912EC07A
:103990007F91E72F7395F2CF7F930E944A007517AE
:1039A00039F1852F871710F47F9120C07F91E72F81
:1039B0007395F2CF7F930E9451007517C9F0852F40
:1039C000871710F47F9112C07F91E72F7395F2CF84
:1039D0007F930E945800751759F0852F871710F4B0
:1039E0007F9104C07F91E72F7395F2CF572F02C0CC
:1039F0007F91572FEF919F918F91BF917F91EF9181
:103A0000841BDFB7951710F0951B04C0CAE09C0F0C
:103A1000951B8A95082FA92F003019F4B0E010E00B
:103A20004BC07A2F0830E0F4043088F4023028F4D8
:103A300000E882E00E9443001BC0000F000F000F4F
:103A4000000F000F000F83E00E944A0011C0000F1A
:103A5000000F000F000F000F84E00E94510008C00B
:103A6000000F000F000F000F85E00E94580000C0FB
:103A7000770F072BB82F102F4F935F936F9317FD7E
:103A800004C046E016FF04C014C01695B39511C0DB
:103A900050E24A95612F6523603021F456954330FA
:103AA00041F0F7CF56E0541B110FBA955A9550309C
:103AB000D9F76F915F914F91012FAB2FBF911F915C
:103AC000CF915F914F919F918F9190E00F93AF9322
:103AD00002E0A0E0003019F4B0E010E04BC07A2F13
:103AE0000830E0F4043088F4023028F400E882E082
:103AF0000E9443001BC0000F000F000F000F000FBB
:103B0000000F83E00E944A0011C0000F000F000F59
:103B1000000F000F84E00E94510008C0000F000F4A
:103B2000000F000F85E00E94580000C0770F072BA0
:103B3000B82F102F4F935F936F9317FD04C046E08B
:103B400016FF04C014C01695B39511C050E24A95F3
:103B5000612F6523603021F45695433041F0F7CF53
:103B600056E0541B110FBA955A955030D9F76F9102
:103B70005F914F911F93BF93AF910F91BF911F9191
:103B8000FF93FB2FF03021F4FF9140E050E06BC039
:103B9000FF91EF937F93BF9326E073E0B71B2B1B3E
:103BA0001F9316952A952030E1F7412F1F911F93FF
:103BB00022E02B0F110F2A952030E1F722E02B0F86
:103BC00016952A952030E1F7512F1F918F939F93DF
:103BD000EF939B2F70E0933071F19230F1F09130C0
:103BE00071F07F930E9443007517A9F1852F871705
:103BF00010F47F912EC07F91E72F7395F2CF7F93C2
:103C00000E944A00751739F1852F871710F47F91AC
:103C100020C07F91E72F7395F2CF7F930E945100D0
:103C20007517C9F0852F871710F47F9112C07F9107
:103C3000E72F7395F2CF7F930E945800751759F0C4
:103C4000852F871710F47F9104C07F91E72F73951C
:103C5000F2CF572F02C07F91572FEF919F918F91F5
:103C6000BF917F91EF914F93142FB0E0103019F472
:103C7000B0E010E04BC07B2F1830E0F4143088F433
:103C8000123028F410E882E00E9443001BC0110F9C
:103C9000110F110F110F110F110F83E00E944A0035
:103CA00011C0110F110F110F110F110F84E00E949D
:103CB000510008C0110F110F110F110F85E00E9464
:103CC000580000C0770F172BB82F112F4F935F9319
:103CD0006F9317FD04C046E016FF04C014C016958C
:103CE000B39511C050E24A95612F6523603021F4ED
:103CF0005695433041F0F7CF56E0541B110FBA955B
:103D00005A955030D9F76F915F914F91902FCA2FEC
:103D10004F914030DFB7D1FDA6C14130DFB7D1FDB3
:103D2000A2C14F939F93CF93FF93FA2FF03021F4CA
:103D3000FF9140E050E06BC0FF91EF937F93AF9312
:103D400026E073E0A71B2A1B0F9306952A952030C7
:103D5000E1F7402F0F910F9322E02A0F000F2A95D1
:103D60002030E1F722E02A0F06952A952030E1F76E
:103D7000502F0F918F939F93EF939A2F70E0933072
:103D800071F19230F1F0913071F07F930E94430015
:103D90007517A9F1852F871710F47F912EC07F9199
:103DA000E72F7395F2CF7F930E944A00751739F180
:103DB000852F871710F47F9120C07F91E72F73958F
:103DC000F2CF7F930E9451007517C9F0852F871796
:103DD00010F47F9112C07F91E72F7395F2CF7F93FC
:103DE0000E945800751759F0852F871710F47F919E
:103DF00004C07F91E72F7395F2CF572F02C07F91B8
:103E0000572FEF919F918F91AF917F91EF91742FE9
:103E1000852FFF93FC2FF03021F4FF9140E050E01C
:103E20006BC0FF91EF937F93CF9326E073E0C71BA6
:103E30002C1B9F9396952A952030E1F7492F9F914F
:103E40009F9322E02C0F990F2A952030E1F722E072
:103E50002C0F96952A952030E1F7592F9F918F933B
:103E60009F93EF939C2F70E0933071F19230F1F0BB
:103E7000913071F07F930E9443007517A9F1852F4F
:103E8000871710F47F912EC07F91E72F7395F2CFA3
:103E90007F930E944A00751739F1852F871710F418
:103EA0007F9120C07F91E72F7395F2CF7F930E947F
:103EB00051007517C9F0852F871710F47F9112C034
:103EC0007F91E72F7395F2CF7F930E94580075176B
:103ED00059F0852F871710F47F9104C07F91E72F49
:103EE0007395F2CF572F02C07F91572FEF919F917B
:103EF0008F91CF917F91EF91503009F01BC0479F78
:103F0000702D489F802D8930DFB7D2FD50C07F9340
:103F10008A3018F440E0582F08C0DAE0F0E08D1B3A
:103F2000F3958A30E0F74F2F582F7F91740F072FAA
:103F3000A52F3FC04F93759F902D859FC02DC930F1
:103F4000DFB7D2FD14C04F935F939F93CA3018F42C
:103F500040E05C2F08C0DAE0F0E0CD1BF395CA30FA
:103F6000E0F74F2F5C2F9F91940F5F914F91E92FB6
:103F7000F0E04F91749F902D849FC02DC930DFB722
:103F8000D2FD03C09395DAE0CD1BEC0FEA3018F4B4
:103F900040E05E2F08C0DAE0F0E0ED1BF395EA3078
:103FA000E0F74F2F5E2F940F092FA52F02C0072F88
:103FB000A82F003019F4B0E010E04BC07A2F083081
:103FC000E0F4043088F4023028F400E882E00E9433
:103FD00043001BC0000F000F000F000F000F000F69
:103FE00083E00E944A0011C0000F000F000F000F75
:103FF000000F84E00E94510008C0000F000F000F66
:10400000000F85E00E94580000C0770F072BB82FE3
:10401000102F4F935F936F9317FD04C046E016FF78
:1040200004C014C01695B39511C050E24A95612F93
:104030006523603021F45695433041F0F7CF56E0C8
:10404000541B110FBA955A955030D9F76F915F9163
:104050004F91AB2F012FCF919F914F914A954130B6
:10406000DFB7D1FF5ECE91E0FF93FA2FF03021F45D
:10407000FF9140E050E06BC0FF91EF937F93AF93CF
:1040800026E073E0A71B2A1B0F9306952A95203084
:10409000E1F7402F0F910F9322E02A0F000F2A958E
:1040A0002030E1F722E02A0F06952A952030E1F72B
:1040B000502F0F918F939F93EF939A2F70E093302F
:1040C00071F19230F1F0913071F07F930E944300D2
:1040D0007517A9F1852F871710F47F912EC07F9156
:1040E000E72F7395F2CF7F930E944A00751739F13D
:1040F000852F871710F47F9120C07F91E72F73954C
:10410000F2CF7F930E9451007517C9F0852F871752
:1041100010F47F9112C07F91E72F7395F2CF7F93B8
:104120000E945800751759F0852F871710F47F915A
:1041300004C07F91E72F7395F2CF572F02C07F9174
:10414000572FEF919F918F91AF917F91EF914A30CF
:1041500008F404C03AE0431B61E001C060E00FEFE7
:104160000AB900E00BB907EE04B908E105B90FEB95
:1041700007B900E408B900000F930AEF0E940F008E
:104180000F91913009F015C02D9A0F930AEF0E94FC
:104190000F000F910F930AEF0E940F000F910F93E2
:1041A0000AEF0E940F000F910F930AEF0E940F0079
:1041B0000F910F93062F0E942D3100910500087179
:1041C00005B91BB92A9A0F9305E00E940F000F91C1
:1041D0000F910F93042F0E942D311068009105005C
:1041E000087105B91BB9299A0F9305E00E940F00C9
:1041F0000F910F910F93052F0E942D310091050013
:10420000087105B91BB9289A0F9305E00E940F00A9
:104210000F910F911B9B01C0CCCF0F9305E00E9423
:104220000F000F9128982D980F930AEF0E940F000E
:104230000F910F930AEF0E940F000F910F930AEF57
:104240000E940F000F910F930AEF0E940F000F9131
:1042500005E0A0E0003019F4B0E010E04BC07A2F88
:104260000830E0F4043088F4023028F400E882E0FA
:104270000E9443001BC0000F000F000F000F000F33
:10428000000F83E00E944A0011C0000F000F000FD2
:10429000000F000F84E00E94510008C0000F000FC3
:1042A000000F000F85E00E94580000C0770F072B19
:1042B000B82F102F4F935F936F9317FD04C046E004
:1042C00016FF04C014C01695B39511C050E24A956C
:1042D000612F6523603021F45695433041F0F7CFCC
:1042E00056E0541B110FBA955A955030D9F76F917B
:1042F0005F914F911F93BF9302E0A3E0003019F448
:10430000B0E010E04BC07A2F0830E0F4043088F4BD
:10431000023028F400E882E00E9443001BC0000F36
:10432000000F000F000F000F000F83E00E944A00F3
:1043300011C0000F000F000F000F000F84E00E945B
:10434000510008C0000F000F000F000F85E00E9411
:10435000580000C0770F072BB82F102F4F935F9393
:104360006F9317FD04C046E016FF04C014C01695F5
:10437000B39511C050E24A95612F6523603021F456
:104380005695433041F0F7CF56E0541B110FBA95C4
:104390005A955030D9F76F915F914F91AF910F912E
:1043A000FF93FA2FF03021F4FF9140E050E06BC012
:1043B000FF91EF937F93AF9326E073E0A71B2A1B37
:1043C0000F9306952A952030E1F7402F0F910F9318
:1043D00022E02A0F000F2A952030E1F722E02A0F71
:1043E00006952A952030E1F7502F0F918F939F93D8
:1043F000EF939A2F70E0933071F19230F1F0913099
:1044000071F07F930E9443007517A9F1852F8717DC
:1044100010F47F912EC07F91E72F7395F2CF7F9399
:104420000E944A00751739F1852F871710F47F9184
:1044300020C07F91E72F7395F2CF7F930E945100A8
:104440007517C9F0852F871710F47F9112C07F91DF
:10445000E72F7395F2CF7F930E945800751759F09C
:10446000852F871710F47F9104C07F91E72F7395F4
:10447000F2CF572F02C07F91572FEF919F918F91CD
:10448000AF917F91EF91842F952FFF93FB2FF03009
:1044900021F4FF9140E050E06BC0FF91EF937F93D8
:1044A000BF9326E073E0B71B2B1B1F9316952A952D
:1044B0002030E1F7412F1F911F9322E02B0F110FA6
:1044C0002A952030E1F722E02B0F16952A9520300F
:1044D000E1F7512F1F918F939F93EF939B2F70E0E4
:1044E000933071F19230F1F0913071F07F930E942E
:1044F00043007517A9F1852F871710F47F912EC0FF
:104500007F91E72F7395F2CF7F930E944A00751732
:1045100039F1852F871710F47F9120C07F91E72F05
:104520007395F2CF7F930E9451007517C9F0852FC4
:10453000871710F47F9112C07F91E72F7395F2CF08
:104540007F930E945800751759F0852F871710F434
:104550007F9104C07F91E72F7395F2CF572F02C050
:104560007F91572FEF919F918F91BF917F91EF9105
:10457000840F950F9A3008F403C0CAE09C1B839502
:10458000082FA92F003019F4B0E010E04BC07A2FAB
:104590000830E0F4043088F4023028F400E882E0C7
:1045A0000E9443001BC0000F000F000F000F000F00
:1045B000000F83E00E944A0011C0000F000F000F9F
:1045C000000F000F84E00E94510008C0000F000F90
:1045D000000F000F85E00E94580000C0770F072BE6
:1045E000B82F102F4F935F936F9317FD04C046E0D1
:1045F00016FF04C014C01695B39511C050E24A9539
:10460000612F6523603021F45695433041F0F7CF98
:1046100056E0541B110FBA955A955030D9F76F9147
:104620005F914F91012FAB2F90E00F93AF930AE072
:10463000A5E0003019F4B0E010E04BC07A2F08304C
:10464000E0F4043088F4023028F400E882E00E94AC
:1046500043001BC0000F000F000F000F000F000FE2
:1046600083E00E944A0011C0000F000F000F000FEE
:10467000000F84E00E94510008C0000F000F000FDF
:10468000000F85E00E94580000C0770F072BB82F5D
:10469000102F4F935F936F9317FD04C046E016FFF2
:1046A00004C014C01695B39511C050E24A95612F0D
:1046B0006523603021F45695433041F0F7CF56E042
:1046C000541B110FBA955A955030D9F76F915F91DD
:1046D0004F911F93BF93AF910F91BF911F918F93F4
:1046E0009F934F935F93CF931F93BF93FF93FA2FA3
:1046F000F03021F4FF9140E050E06BC0FF91EF9368
:104700007F93AF9326E073E0A71B2A1B0F930695B8
:104710002A952030E1F7402F0F910F9322E02A0FC6
:10472000000F2A952030E1F722E02A0F06952A95FE
:104730002030E1F7502F0F918F939F93EF939A2F93
:1047400070E0933071F19230F1F0913071F07F931D
:104750000E9443007517A9F1852F871710F47F91E8
:104760002EC07F91E72F7395F2CF7F930E944A006E
:10477000751739F1852F871710F47F9120C07F912D
:10478000E72F7395F2CF7F930E9451007517C9F000
:10479000852F871710F47F9112C07F91E72F7395B3
:1047A000F2CF7F930E945800751759F0852F871715
:1047B00010F47F9104C07F91E72F7395F2CF572FAC
:1047C00002C07F91572FEF919F918F91AF917F9171
:1047D000EF91842F952FFF93FB2FF03021F4FF9161
:1047E00040E050E06BC0FF91EF937F93BF9326E0D2
:1047F00073E0B71B2B1B1F9316952A952030E1F70A
:10480000412F1F911F9322E02B0F110F2A9520306B
:10481000E1F722E02B0F16952A952030E1F7512F72
:104820001F918F939F93EF939B2F70E0933071F1C3
:104830009230F1F0913071F07F930E944300751730
:10484000A9F1852F871710F47F912EC07F91E72F54
:104850007395F2CF7F930E944A00751739F1852F27
:10486000871710F47F9120C07F91E72F7395F2CFC7
:104870007F930E9451007517C9F0852F871710F498
:104880007F9112C07F91E72F7395F2CF7F930E94A3
:104890005800751759F0852F871710F47F9104C0C1
:1048A0007F91E72F7395F2CF572F02C07F91572F3B
:1048B000EF919F918F91BF917F91EF91841BDFB713
:1048C000951710F0951B04C0CAE09C0F951B8A95A4
:1048D000082FA92F003019F4B0E010E04BC07A2F58
:1048E0000830E0F4043088F4023028F400E882E074
:1048F0000E9443001BC0000F000F000F000F000FAD
:10490000000F83E00E944A0011C0000F000F000F4B
:10491000000F000F84E00E94510008C0000F000F3C
:10492000000F000F85E00E94580000C0770F072B92
:10493000B82F102F4F935F936F9317FD04C046E07D
:1049400016FF04C014C01695B39511C050E24A95E5
:10495000612F6523603021F45695433041F0F7CF45
:1049600056E0541B110FBA955A955030D9F76F91F4
:104970005F914F91012FAB2FBF911F91CF915F910D
:104980004F919F918F9190E00F93AF9303E0A0E040
:10499000003019F4B0E010E04BC07A2F0830E0F49A
:1049A000043088F4023028F400E882E00E944300DA
:1049B0001BC0000F000F000F000F000F000F83E05F
:1049C0000E944A0011C0000F000F000F000F000FDF
:1049D00084E00E94510008C0000F000F000F000F7C
:1049E00085E00E94580000C0770F072BB82F102FCA
:1049F0004F935F936F9317FD04C046E016FF04C00A
:104A000014C01695B39511C050E24A95612F6523E5
:104A1000603021F45695433041F0F7CF56E0541BF7
:104A2000110FBA955A955030D9F76F915F914F9108
:104A30001F93BF93AF910F91BF911F91FF93FA2FD7
:104A4000F03021F4FF9140E050E06BC0FF91EF9314
:104A50007F93AF9326E073E0A71B2A1B0F93069565
:104A60002A952030E1F7402F0F910F9322E02A0F73
:104A7000000F2A952030E1F722E02A0F06952A95AB
:104A80002030E1F7502F0F918F939F93EF939A2F40
:104A900070E0933071F19230F1F0913071F07F93CA
:104AA0000E9443007517A9F1852F871710F47F9195
:104AB0002EC07F91E72F7395F2CF7F930E944A001B
:104AC000751739F1852F871710F47F9120C07F91DA
:104AD000E72F7395F2CF7F930E9451007517C9F0AD
:104AE000852F871710F47F9112C07F91E72F739560
:104AF000F2CF7F930E945800751759F0852F8717C2
:104B000010F47F9104C07F91E72F7395F2CF572F58
:104B100002C07F91572FEF919F918F91AF917F911D
:104B2000EF91742F852FFF93FB2FF03021F4FF912D
:104B300040E050E06BC0FF91EF937F93BF9326E07E
:104B400073E0B71B2B1B1F9316952A952030E1F7B6
:104B5000412F1F911F9322E02B0F110F2A95203018
:104B6000E1F722E02B0F16952A952030E1F7512F1F
:104B70001F918F939F93EF939B2F70E0933071F170
:104B80009230F1F0913071F07F930E9443007517DD
:104B9000A9F1852F871710F47F912EC07F91E72F01
:104BA0007395F2CF7F930E944A00751739F1852FD4
:104BB000871710F47F9120C07F91E72F7395F2CF74
:104BC0007F930E9451007517C9F0852F871710F445
:104BD0007F9112C07F91E72F7395F2CF7F930E9450
:104BE0005800751759F0852F871710F47F9104C06E
:104BF0007F91E72F7395F2CF572F02C07F91572FE8
:104C0000EF919F918F91BF917F91EF91503009F07B
:104C10001BC0479F702D489F802D8930DFB7D2FD84
:104C200050C07F938A3018F440E0582F08C0DAE073
:104C3000F0E08D1BF3958A30E0F74F2F582F7F91CE
:104C4000740F072FA52F3FC04F93759F902D859F01
:104C5000C02DC930DFB7D2FD14C04F935F939F932F
:104C6000CA3018F440E05C2F08C0DAE0F0E0CD1B59
:104C7000F395CA30E0F74F2F5C2F9F91940F5F910F
:104C80004F91E92FF0E04F91749F902D849FC02D9C
:104C9000C930DFB7D2FD03C09395DAE0CD1BEC0F2E
:104CA000EA3018F440E05E2F08C0DAE0F0E0ED1BD7
:104CB000F395EA30E0F74F2F5E2F940F092FA52FC1
:104CC00002C0072FA82F003019F4B0E010E04BC04D
:104CD0007A2F0830E0F4043088F4023028F400E839
:104CE00082E00E9443001BC0000F000F000F000F66
:104CF000000F000F83E00E944A0011C0000F000F58
:104D0000000F000F000F84E00E94510008C0000F48
:104D1000000F000F000F85E00E94580000C0770FC1
:104D2000072BB82F102F4F935F936F9317FD04C07D
:104D300046E016FF04C014C01695B39511C050E2AA
:104D40004A95612F6523603021F45695433041F038
:104D5000F7CF56E0541B110FBA955A955030D9F73A
:104D60006F915F914F91AB2F012F90E00F93AF9315
:104D70000CE0A4E0003019F4B0E010E04BC07A2F52
:104D80000830E0F4043088F4023028F400E882E0CF
:104D90000E9443001BC0000F000F000F000F000F08
:104DA000000F83E00E944A0011C0000F000F000FA7
:104DB000000F000F84E00E94510008C0000F000F98
:104DC000000F000F85E00E94580000C0770F072BEE
:104DD000B82F102F4F935F936F9317FD04C046E0D9
:104DE00016FF04C014C01695B39511C050E24A9541
:104DF000612F6523603021F45695433041F0F7CFA1
:104E000056E0541B110FBA955A955030D9F76F914F
:104E10005F914F911F93BF93AF910F91BF911F91DE
:104E20000F931F93AF93BF9330E08F939F934F9354
:104E30005F93CF931F93BF93FF93FA2FF03021F42A
:104E4000FF9140E050E06BC0FF91EF937F93AF93F1
:104E500026E073E0A71B2A1B0F9306952A952030A6
:104E6000E1F7402F0F910F9322E02A0F000F2A95B0
:104E70002030E1F722E02A0F06952A952030E1F74D
:104E8000502F0F918F939F93EF939A2F70E0933051
:104E900071F19230F1F0913071F07F930E944300F4
:104EA0007517A9F1852F871710F47F912EC07F9178
:104EB000E72F7395F2CF7F930E944A00751739F15F
:104EC000852F871710F47F9120C07F91E72F73956E
:104ED000F2CF7F930E9451007517C9F0852F871775
:104EE00010F47F9112C07F91E72F7395F2CF7F93DB
:104EF0000E945800751759F0852F871710F47F917D
:104F000004C07F91E72F7395F2CF572F02C07F9196
:104F1000572FEF919F918F91AF917F91EF91842FB8
:104F2000952FFF93FB2FF03021F4FF9140E050E0EC
:104F30006BC0FF91EF937F93BF9326E073E0B71BA5
:104F40002B1B1F9316952A952030E1F7412F1F91B7
:104F50001F9322E02B0F110F2A952030E1F722E05A
:104F60002B0F16952A952030E1F7512F1F918F9323
:104F70009F93EF939B2F70E0933071F19230F1F09B
:104F8000913071F07F930E9443007517A9F1852F2E
:104F9000871710F47F912EC07F91E72F7395F2CF82
:104FA0007F930E944A00751739F1852F871710F4F7
:104FB0007F9120C07F91E72F7395F2CF7F930E945E
:104FC00051007517C9F0852F871710F47F9112C013
:104FD0007F91E72F7395F2CF7F930E94580075174A
:104FE00059F0852F871710F47F9104C07F91E72F28
:104FF0007395F2CF572F02C07F91572FEF919F915A
:105000008F91BF917F91EF91841BDFB7951710F0BF
:10501000951B04C0CAE09C0F951B8A95082FA92FE9
:10502000003019F4B0E010E04BC07A2F0830E0F403
:10503000043088F4023028F400E882E00E94430043
:105040001BC0000F000F000F000F000F000F83E0C8
:105050000E944A0011C0000F000F000F000F000F48
:1050600084E00E94510008C0000F000F000F000FE5
:1050700085E00E94580000C0770F072BB82F102F33
:105080004F935F936F9317FD04C046E016FF04C073
:1050900014C01695B39511C050E24A95612F65234F
:1050A000603021F45695433041F0F7CF56E0541B61
:1050B000110FBA955A955030D9F76F915F914F9172
:1050C000012FAB2FBF911F91CF915F914F919F9176
:1050D0008F914F935F936F9317FD04C046E016FFC7
:1050E00004C014C01695B39511C050E24A95612FC3
:1050F0006523603021F45695433041F0F7CF56E0F8
:10510000541B110FBA955A955030D9F76F915F9192
:105110004F91D2FD04C03395002E1A2E86CEBF913A
:10512000AF911F910F910F931F933F93E0E0EF9387
:10513000FF93F12DF03021F4FF9140E050E06BC07F
:10514000FF91EF937F931F9226E073E0171A2119C6
:105150000F9206942A952030E1F7402D0F900F9280
:1051600022E0210D000C2A952030E1F722E0210DEC
:1051700006942A952030E1F7502D0F908F939F933E
:10518000EF93912D70E0933071F19230F1F0913006
:1051900071F07F930E9443007517A9F1852F87173F
:1051A00010F47F912EC07F91E72F7395F2CF7F93FC
:1051B0000E944A00751739F1852F871710F47F91E7
:1051C00020C07F91E72F7395F2CF7F930E9451000B
:1051D0007517C9F0852F871710F47F9112C07F9142
:1051E000E72F7395F2CF7F930E945800751759F0FF
:1051F000852F871710F47F9104C07F91E72F739557
:10520000F2CF572F02C07F91572FEF919F918F912F
:105210001F907F91EF91403009F002C0C42F8EC1E2
:10522000EF91E42FEF934F935F93FF93FA2FF030BA
:1052300021F4FF9140E050E06BC0FF91EF937F932A
:10524000AF9326E073E0A71B2A1B0F9306952A95C0
:105250002030E1F7402F0F910F9322E02A0F000F2B
:105260002A952030E1F722E02A0F06952A95203072
:10527000E1F7502F0F918F939F93EF939A2F70E048
:10528000933071F19230F1F0913071F07F930E9480
:1052900043007517A9F1852F871710F47F912EC051
:1052A0007F91E72F7395F2CF7F930E944A00751785
:1052B00039F1852F871710F47F9120C07F91E72F58
:1052C0007395F2CF7F930E9451007517C9F0852F17
:1052D000871710F47F9112C07F91E72F7395F2CF5B
:1052E0007F930E945800751759F0852F871710F487
:1052F0007F9104C07F91E72F7395F2CF572F02C0A3
:105300007F91572FEF919F918F91AF917F91EF9167
:105310005030DFB75F914F91D1FF7CC04F935F93C7
:10532000FF93FB2FF03021F4FF9140E050E06BC081
:10533000FF91EF937F93BF9326E073E0B71B2B1B86
:105340001F9316952A952030E1F7412F1F911F9347
:1053500022E02B0F110F2A952030E1F722E02B0FCE
:1053600016952A952030E1F7512F1F918F939F9327
:10537000EF939B2F70E0933071F19230F1F0913008
:1053800071F07F930E9443007517A9F1852F87174D
:1053900010F47F912EC07F91E72F7395F2CF7F930A
:1053A0000E944A00751739F1852F871710F47F91F5
:1053B00020C07F91E72F7395F2CF7F930E94510019
:1053C0007517C9F0852F871710F47F9112C07F9150
:1053D000E72F7395F2CF7F930E945800751759F00D
:1053E000852F871710F47F9104C07F91E72F739565
:1053F000F2CF572F02C07F91572FEF919F918F913E
:10540000BF917F91EF915030DFB75F914F91D1FF06
:1054100001C094C0EF91E0E0EF933AE0439F302D5C
:10542000350FFF93FB2FF03021F4FF9140E050E067
:105430006BC0FF91EF937F93BF9326E073E0B71BA0
:105440002B1B1F9316952A952030E1F7412F1F91B2
:105450001F9322E02B0F110F2A952030E1F722E055
:105460002B0F16952A952030E1F7512F1F918F931E
:105470009F93EF939B2F70E0933071F19230F1F096
:10548000913071F07F930E9443007517A9F1852F29
:10549000871710F47F912EC07F91E72F7395F2CF7D
:1054A0007F930E944A00751739F1852F871710F4F2
:1054B0007F9120C07F91E72F7395F2CF7F930E9459
:1054C00051007517C9F0852F871710F47F9112C00E
:1054D0007F91E72F7395F2CF7F930E945800751745
:1054E00059F0852F871710F47F9104C07F91E72F23
:1054F0007395F2CF572F02C07F91572FEF919F9155
:105500008F91BF917F91EF91F0E0341BDFB7D2FD17
:1055100006C0F93019F0F395732FF7CF0EC074174A
:1055200060F0523050F03AE0739F702DC0E0751B70
:10553000DFB7D2FD03C0C395FACFCF2FEF913F91D4
:105540001F910F91EF93303019F4B0E010E04BC091
:105550007C2F3830E0F4343088F4323028F430E8EE
:1055600082E00E9443001BC0330F330F330F330F11
:10557000330F330F83E00E944A0011C0330F330F03
:10558000330F330F330F84E00E94510008C0330FF4
:10559000330F330F330F85E00E94580000C0770FA0
:1055A000372BB82F132F4F935F936F9317FD04C0C2
:1055B00046E016FF04C014C01695B39511C050E222
:1055C0004A95612F6523603021F45695433041F0B0
:1055D000F7CF56E0541B110FBA955A955030D9F7B2
:1055E0006F915F914F91EF91012FAB2F90E00F934F
:1055F000AF9302E0A0E0003019F4B0E010E04BC03F
:105600007A2F0830E0F4043088F4023028F400E8FF
:1056100082E00E9443001BC0000F000F000F000F2C
:10562000000F000F83E00E944A0011C0000F000F1E
:10563000000F000F000F84E00E94510008C0000F0F
:10564000000F000F000F85E00E94580000C0770F88
:10565000072BB82F102F4F935F936F9317FD04C044
:1056600046E016FF04C014C01695B39511C050E271
:105670004A95612F6523603021F45695433041F0FF
:10568000F7CF56E0541B110FBA955A955030D9F701
:105690006F915F914F911F93BF93AF910F91BF9106
:1056A0001F91FF93FA2FF03021F4FF9140E050E07A
:1056B0006BC0FF91EF937F93AF9326E073E0A71B3E
:1056C0002A1B0F9306952A952030E1F7402F0F9162
:1056D0000F9322E02A0F000F2A952030E1F722E0F5
:1056E0002A0F06952A952030E1F7502F0F918F93BE
:1056F0009F93EF939A2F70E0933071F19230F1F015
:10570000913071F07F930E9443007517A9F1852FA6
:10571000871710F47F912EC07F91E72F7395F2CFFA
:105720007F930E944A00751739F1852F871710F46F
:105730007F9120C07F91E72F7395F2CF7F930E94D6
:1057400051007517C9F0852F871710F47F9112C08B
:105750007F91E72F7395F2CF7F930E9458007517C2
:1057600059F0852F871710F47F9104C07F91E72FA0
:105770007395F2CF572F02C07F91572FEF919F91D2
:105780008F91AF917F91EF91842F952FFF93FB2FF6
:10579000F03021F4FF9140E050E06BC0FF91EF93B7
:1057A0007F93BF9326E073E0B71B2B1B1F931695C7
:1057B0002A952030E1F7412F1F911F9322E02B0FF4
:1057C000110F2A952030E1F722E02B0F16952A952C
:1057D0002030E1F7512F1F918F939F93EF939B2FD1
:1057E00070E0933071F19230F1F0913071F07F936D
:1057F0000E9443007517A9F1852F871710F47F9138
:105800002EC07F91E72F7395F2CF7F930E944A00BD
:10581000751739F1852F871710F47F9120C07F917C
:10582000E72F7395F2CF7F930E9451007517C9F04F
:10583000852F871710F47F9112C07F91E72F739502
:10584000F2CF7F930E945800751759F0852F871764
:1058500010F47F9104C07F91E72F7395F2CF572FFB
:1058600002C07F91572FEF919F918F91BF917F91B0
:10587000EF91840F950F9A3008F403C0CAE09C1B87
:105880008395082FA92F003019F4B0E010E04BC029
:105890007A2F0830E0F4043088F4023028F400E86D
:1058A00082E00E9443001BC0000F000F000F000F9A
:1058B000000F000F83E00E944A0011C0000F000F8C
:1058C000000F000F000F84E00E94510008C0000F7D
:1058D000000F000F000F85E00E94580000C0770FF6
:1058E000072BB82F102F4F935F936F9317FD04C0B2
:1058F00046E016FF04C014C01695B39511C050E2DF
:105900004A95612F6523603021F45695433041F06C
:10591000F7CF56E0541B110FBA955A955030D9F76E
:105920006F915F914F91012FAB2F90E00F93AF9349
:1059300001E0A2E0003019F4B0E010E04BC07A2F93
:105940000830E0F4043088F4023028F400E882E003
:105950000E9443001BC0000F000F000F000F000F3C
:10596000000F83E00E944A0011C0000F000F000FDB
:10597000000F000F84E00E94510008C0000F000FCC
:10598000000F000F85E00E94580000C0770F072B22
:10599000B82F102F4F935F936F9317FD04C046E00D
:1059A00016FF04C014C01695B39511C050E24A9575
:1059B000612F6523603021F45695433041F0F7CFD5
:1059C00056E0541B110FBA955A955030D9F76F9184
:1059D0005F914F91AF910F918F939F934F935F93EF
:1059E000CF931F93BF93FF93FA2FF03021F4FF91D1
:1059F00040E050E06BC0FF91EF937F93AF9326E0C0
:105A000073E0A71B2A1B0F9306952A952030E1F718
:105A1000402F0F910F9322E02A0F000F2A9520307C
:105A2000E1F722E02A0F06952A952030E1F7502F62
:105A30000F918F939F93EF939A2F70E0933071F1B2
:105A40009230F1F0913071F07F930E94430075170E
:105A5000A9F1852F871710F47F912EC07F91E72F32
:105A60007395F2CF7F930E944A00751739F1852F05
:105A7000871710F47F9120C07F91E72F7395F2CFA5
:105A80007F930E9451007517C9F0852F871710F476
:105A90007F9112C07F91E72F7395F2CF7F930E9481
:105AA0005800751759F0852F871710F47F9104C09F
:105AB0007F91E72F7395F2CF572F02C07F91572F19
:105AC000EF919F918F91AF917F91EF91842F952FBF
:105AD000FF93FB2FF03021F4FF9140E050E06BC0CA
